:10097B00202020204A4142414C54656368202020AE
:10098B00002050756D7020436F6E74726F6C6C65C8
:10099B00720020506F776572696E67206F6E200052
:1009AB00204175746F6D6174696320537461727447
:1009BB00002020202064697361626C656420202014
:1009CB0020002020202020656E61626C6564202051
:1009DB0020200054616E6B2057617465723A20467B
:1009EB00756C6C0054616E6B2057617465723A20A4
:1009FB004F6B61790054616E6B2057617465723A6D
:100A0B00204572722E0054616E6B205761746572B3
:100A1B003A204C6F7721002D2D2D2D2D2D2D2D2D89
:100A2B002D2D2D2D2D2D2D00202050726573732013
:100A3B0053544152542020200020204D6F6E697476
:100A4B006F72696E672E2E2E2000202050756D70F0
:100A5B002052756E6E696E67202000202050756DD8
:100A6B00702053746F70706564202000576174653B
:100A7B007220466C6F77204572726F720020205087
:0E0A8B00756D70207061757365642120200008
:100A9900E4F5807590FF75A0FFF510F511F512F5D5
:100AA90013F50CF50DF51CF51DF50AF50BF516F505
:100AB90017F514F515F50EF50FF518F519F51AF5DD
:100AC9001BF51EF51FF508F509120E5D7BFF7A0966
:100AD900797B120E38120EE47BFF7A09798C120E9B
:100AE900387F01120EA6120EDA7BFF7A09799D1260
:100AF9000E387FFA7E00120E8F7D0E7F02120E11C4
:100B09007F2E120CE37FFA7E00120E8F7D0F7F027B
:100B1900120E117F2E120CE37FFA7E00120E8F7DCA
:100B2900107F02120E117F2E120CE3C2A17F647E88
:100B390000120E8FD2A1120EDA120EDF7BFF7A0994
:100B490079AB120E38120EE47BFF3092067A0979DE
:100B5900BC80047A0979CD120E387F01120EA602E3
:020B69000EDAA2
:100B6B00E4F50AF50BF516F517120EDF2094252088
:100B7B009522E5194518701C7BFF7A0979DE120E58
:100B8B0038751800751901E4F508F509F51AF51B08
:100B9B00F51EF51F309425209522E51B451A701C78
:100BAB007BFF7A0979EF120E38751A00751B01E479
:100BBB00F508F509F518F519F51EF51F20942530E4
:100BCB009522E51F451E701C7BFF7A0A7900120ED9
:100BDB0038751E00751F01E4F508F509F518F519B0
:100BEB00F51AF51B309425309522E5094508701C44
:100BFB007BFF7A0A7911120E38750800750901E42A
:0D0C0B00F51AF51BF518F519F51EF51F2259
:100D4200120B6BE51745167039120EE4209416E566
:100D52000F450E6008E51D6401451C701A7BFF7A81
:100D62000A7922800F30940FE50F450E70097BFF40
:100D72007A0A7933120E38751600751701E4F50AEE
:030D8200F50B224C
:100DEA00120B6BE50B450A701DE50F450E700C12D0
:100DFA000EE47BFF7A0A7944120E38750A00750BE5
:070E0A0001E4F516F51722C3
:100DBD00120B6BC2A0750E00750F01E4F51CF51D2D
:100DCD00F50AF50BF516F517F514F515F50C750D6A
:0D0DDD0001120EE47BFF7A0A7955020E38F0
:100D8500120B6BD2A0E4F50EF50FF50CF50DF50A77
:100D9500F50BF516F517F510F511E51D451C701742
:100DA500120EE47BFF7A0A7966120E387F01120E65
:080DB500A6751C00751D01224A
:100C1800D2A0E4F50EF50FF510F511120EDF7BFFEB
:100C28007A0A7977120E38120EE47BFF7A0A7988ED
:100C3800120E38E4F50AF50BF516F517F518F5193F
:100C4800F508F509F51AF51BF51EF51F2092087F22
:100C58000F120EB6020DBD309015309112C2A17F51
:100C6800F47E01120E8FD2A17F01120EA680E82019
:0C0C78009003120DBD209103120D852287
:10080000120A992092030208BE120D42E50F6401FC
:10081000450E700F7FF47E01120E8F0511E51170E9
:10082000020510209020C2A17F647E00120E8FD29C
:10083000A17F647E00120E8FC2A17F647E00120E23
:100840008FD2A1120DBD20910EC2A17FFA7E00129F
:100850000E8FD2A1120D85D3E51194F0E5106480BE
:1008600094804017309314E50F6401450E700CC25C
:10087000A17F01120EA6D2A1120C1820941FE5151B
:1008800045147019C2A17FF47E01120E8FD2A1759A
:1008900014007515017F05120EA6120D8520950313
:1008A000020803E50D450C6003020803C2A17FFAAC
:1008B000FE120E8FD2A17F01120EA6020803309203
:1008C00003020803120DEAE50F6401450E700F7F65
:1008D000F47E01120E8F0511E5117002051030949F
:1008E0000FE51345127009120DBD75120075130145
:1008F000309505E4F512F513209020C2A17F647EA7
:1009000000120E8FD2A17F647E00120E8FC2A17FD3
:10091000647E00120E8FD2A1120DBD20910EC2A1D5
:100920007FFA7E00120E8FD2A1120D85D3E51194AD
:10093000F0E510648094804017309314E50F640153
:10094000450E700CC2A17F01120EA6D2A1120C1886
:100950003094030208BEE515451460030208BEC2C8
:10096000A17FF47E01120E8FD2A1751400751501BE
:0B0970007F05120EA6120D850208BEC6
:100E5D007F02120C847F28120C847F0C120C847F6D
:090E6D0001120C847F80020C8448
:050EDA007F01020C8401
:050EDF007F80020C847D
:050EE4007FC0020C8438
:100E1100C3EF64809482501EEFC4333354C04480C6
:100E2100FFC3ED648094905003ED2FFF120C847F7B
:060E31000A7E00120ED043
:010E37002298
:100C84008F21E52154F0FF3395E0FEEF7802CEA2E8
:100C9400E713CE13D8F8F580C280C200D2817F0A50
:100CA4007E00120ED0C2817F0A7E00120ED0AF21C8
:100CB400EFC4F8540FC868FF7E00EF54F07802CEFA
:100CC400A2E713CE13D8F8F580C280C200D2817F88
:0F0CD4000A7E00120ED0C2817F017E00020E8FB9
:100CE3008F24E52454F0FF3395E0FEEF7802CEA283
:100CF300E713CE13D8F8F580D280C200D2817F0AE1
:100D03007E00120ED0C2817F0A7E00120ED0AF2465
:100D1300EFC4F8540FC868FF7E00EF54F07802CE9A
:100D2300A2E713CE13D8F8F580D280C200D2817F18
:0F0D33000A7E00120ED0C2817F017E00020E8F59
:100E38008B218A228923AB21AA22A923120E76604C
:100E4800130523E5237002052214F9120E76FF120A
:050E58000CE380E22222
:0A0ED000EF1F70011EEF4E70F722B5
:100E8F00AD07AC06ED4C600E7F707E00120ED0EDFC
:070E9F001D70F11C80EE2222
:100EA600AB07EB600A7FE87E03120E8F1B80F322EE
:0E0EB600AA07EA60087F3C120EA61A80F522F9
:03000000020EC429
:0C0EC400787FE4F6D8FD75812402080058
:100E7600BB010689828A83E0225002E722BBFE027A
:090E8600E32289828A83E49322AD
:00000001FF
